:020000040800F2
:1000000000000824CDC3000821C4000821C4000852
:1000100021C4000821C4000821C400080000000019
:1000200000000000000000000000000021C40008E3
:1000300021C400080000000021C40008B3B3000878
:1000400021C4000821C4000821C4000821C40008FC
:1000500021C4000821C40008E1B40008E7B4000886
:10006000EDB40008F3B40008F9B40008B92C000896
:10007000C52C000821C40008D12C0008DD2C000884
:1000800021C4000821C4000821C4000821C40008BC
:1000900021C4000821C4000821C40008FFB40008DE
:1000A00021C40008FDAA000821C4000811AB000803
:1000B00015AB000829AB00083DAB0008F53C000873
:1000C000013D00080D3D0008193D000821C400084D
:1000D00021C400088DBF0008A5BF0008C1BF0008EB
:1000E00027B5000821C4000800000000C5AB0008C7
:1000F0008DAB0008D9AB0008B1AB000821C40008E3
:1001000021C4000821C4000851AB000821C4000824
:10011000DDBF0008F5BF000865AB000879AB00083B
:1001200021C4000821C4000821C4000821C400081B
:1001300021C4000821C4000821C4000821C400080B
:1001400000000000000000000000000000000000AF
:1001500021C4000821C4000821C400080DC0000803
:10016000253D0008313D000821C4000821C40008D5
:1001700021C4000821C4000821C4000821C40008CB
:1001800021C4000821C400083DC0000855C0000873
:1001900021C4000821C4000821C4000821C40008AB
:1001A00021C4000821C4000821C4000821C400089B
:1001B000F927000821C4000821C400083D3D0008BB
:1001C000593D000821C4000821C4000821C40008CA
:1001D00021C4000821C4000821C4000821C400086B
:1001E00021C4000821C4000821C4000821C400085B
:1001F00021C4000821C4000821C4000821C400084B
:1002000021C4000821C4000821C4000821C400083A
:10021000EDAB000801AC000815AC000821C40008D3
:1002200021C4000821C4000821C400080000000007
:1002300021C4000821C400080000000021C40008F7
:1002400021C4000821C4000821C4000821C40008FA
:1002500021C4000821C4000821C4000821C40008EA
:1002600021C4000821C4000821C4000821C40008DA
:1002700021C4000821C4000825C0000800000000B7
:1002800021C4000821C4000821C4000800000000A7
:080290000000000021C4000879
:1002980081F0004102E000BF83F0004330B54FEA2F
:1002A80041044FEA430594EA050F08BF90EA020F9C
:1002B8001FBF54EA000C55EA020C7FEA645C7FEA2F
:1002C800655C00F0E2804FEA5454D4EB5555B8BF52
:1002D8006D420CDD2C4480EA020281EA030382EAC3
:1002E800000083EA010180EA020281EA0303362D55
:1002F80088BF30BD11F0004F4FEA01314FF4801C28
:100308004CEA113102D0404261EB410113F0004F39
:100318004FEA03334CEA133302D0524263EB4303F0
:1003280094EA050F00F0A780A4F10104D5F1200E8E
:100338000DDB02FA0EFC22FA05F2801841F10001E9
:1003480003FA0EF2801843FA05F359410EE0A5F1BD
:1003580020050EF1200E012A03FA0EFC28BF4CF0EE
:10036800020C43FA05F3C01851EBE37101F00045A4
:1003780007D54FF0000EDCF1000C7EEB00006EEBB1
:100388000101B1F5801F1BD3B1F5001F0CD349083B
:100398005FEA30004FEA3C0C04F101044FEA445292
:1003A80012F5800F80F09A80BCF1004F08BF5FEA19
:1003B800500C50F1000041EB045141EA050130BDF9
:1003C8005FEA4C0C404141EB0101013C28BFB1F50B
:1003D800801FE9D291F0000F04BF01460020B1FA56
:1003E80081F308BF2033A3F10B03B3F120020CDA29
:1003F8000C3208DD02F1140CC2F10C0201FA0CF007
:1004080021FA02F10CE002F11402D8BFC2F1200C6B
:1004180001FA02F120FA0CFCDCBF41EA0C01904021
:10042800E41AA2BF01EB0451294330BD6FEA04046A
:100438001F3C1CDA0C340EDC04F11404C4F1200255
:1004480020FA04F001FA02F340EA030021FA04F367
:1004580045EA030130BDC4F10C04C4F1200220FABE
:1004680002F001FA04F340EA0300294630BD21FAFC
:1004780004F0294630BD94F0000F83F4801306BFC2
:1004880081F480110134013D4EE77FEA645C18BFB6
:100498007FEA655C29D094EA050F08BF90EA020F4D
:1004A80005D054EA000C04BF1946104630BD91EA45
:1004B800030F1EBF0021002030BD5FEA545C05D148
:1004C8004000494128BF41F0004130BD14F5800487
:1004D8003CBF01F5801130BD01F0004545F0FE41FB
:1004E80041F470014FF0000030BD7FEA645C1ABF30
:1004F800194610467FEA655C1CBF0B46024650EA67
:10050800013406BF52EA033591EA030F41F4002192
:1005180030BD00BF90F0000F04BF0021704730B518
:100528004FF4806404F132044FF000054FF00001ED
:1005380050E700BF90F0000F04BF0021704730B5AE
:100548004FF4806404F1320410F0004548BF404283
:100558004FF000013EE700BF42004FEAE2014FEAD8
:1005680031014FEA02701FBF12F07F4393F07F4FB3
:1005780081F06051704732F07F4208BF704793F0B6
:100588007F4F04BF41F40021704730B54FF46074C9
:1005980001F0004521F000411CE700BF50EA0102CC
:1005A80008BF704730B54FF000050AE050EA010275
:1005B80008BF704730B511F0004502D5404261EBE5
:1005C80041014FF4806404F132045FEA915C3FF426
:1005D800D8AE4FF003025FEADC0C18BF03325FEAC3
:1005E800DC0C18BF033202EBDC02C2F1200300FA74
:1005F80003FC20FA02F001FA03FE40EA0E0021FA99
:1006080002F11444BDE600BF4FEA4102B2F1E043F3
:1006180024BFB3F5001CDCF1FE5C0DD901F0004CE1
:100628004FEAC0024CEA5070B2F1004F40EB830031
:1006380008BF20F00100704711F0804F21D113F15D
:100648003872BCBF01F00040704741F480114FEA96
:100658005252C2F11802C2F1200C10FA0CF320FA1F
:1006680002F018BF40F001004FEAC1234FEAD3233C
:1006780003FA0CFC40EA0C0023FA02F34FEA4303A6
:10068800CCE77FEA625307D150EA01331EBF4FF02F
:10069800FE4040F44000704701F0004040F0FE404A
:1006A80040F40000704700BF10B5054C237833B9FB
:1006B800044B13B10448AFF300800123237010BD2D
:1006C800C00000240000000020D0000808B5034B3B
:1006D8001BB103490348AFF3008008BD00000000C8
:1006E800C400002420D00008B0EE407AB7EE000A1B
:1006F800B4EEC07AF1EE10FA0ADCFFEE007AB4EE3E
:10070800E77AF1EE10FA54BFB0EE470AB0EE670A86
:100718007047B5EEC00A08B5F1EE10FA2DED028B60
:10072800B7EE008A08DDB1EE400A0CF00DFB38EE9A
:10073800400ABDEC028B08BD0CF006FB30EE480AFF
:10074800F7E700002DE9F04F424C894600252DEDD2
:10075800068B83B000902046019200F00DFCF2EE6B
:10076800047A94ED2F7A67EE277A17EE900AFFF74E
:10077800F3FE4FF03332384BFFF790FDFFF744FF9D
:1007880094ED377ADFED357A09EE100A67EE277AAD
:1007980017EE900AFFF7E0FE4FF033322E4BFFF7CB
:1007A8007DFDFFF731FF267BD4ED3F9A08EE900AD6
:1007B800A6F17F03247F5E425E41294B93F800A097
:1007C8008AEA06021A70A4F17F02264B54421F7867
:1007D800544187EA04021A70019B9D4204D103B078
:1007E800BDEC068BBDE8F08FB7EE00AA4FEA850B8B
:1007F8004FF00008009BB24553F828205A4492ED68
:10080800008A29EE088A82ED008A1AD128EE280A81
:10081800FFF77FFFA74201D1FFF766FF7AEE697AFB
:1008280059F828205A4467EE887AE0EE297AC2ED12
:10083800007A08F101024FF00108022ADAD1454492
:10084800CAE7A74202D128EE280AE5E7B0EE480A2F
:10085800E4E700BFE00000243333F33F0000C84260
:10086800DC000024DD00002400B5ADF24C5D03235C
:1008780002220B49684600F0BFF869464FF4A962A6
:1008880008480CF0B5F90023074A084913700448D2
:10089800074A13700DF24C5D5DF804EB00F090B858
:1008A8000C070024E0000024DC0000244D070008A9
:1008B800DD0000241A4B00211A481B7883F001033D
:1008C80000EE103A10B5B8EE400A00242DED028B68
:1008D80000F0DAFB144B9FED158A01211B781148B3
:1008E80083F0010300EE103AB8EE400A00F0CCFBAA
:1008F800E1B20134B0EE481ADFED0C0AB7EE000A97
:10090800084800F081FB082CF2D1064800F089FC69
:100918000620BDEC028BBDE810400BF085BE00BF81
:10092800DC000024E0000024DD00002400000000BA
:1009380008B5174A06231749137082F84130164A3A
:10094800137082F84130154A137082F84130144A06
:10095800137082F841300C22124B013A0B6101F1FD
:100968002001FAD110484FF400721049C0F8003243
:10097800C0F82032C0F84032C0F86032C0F8C43243
:10098800C82300F2F62040F80A3C0CF031F908BD03
:10099800860100305001002404010030820000303C
:1009A800000000300820803AE000002438D0000819
:1009B8004FF4E0630A3003800523837002F0FAB92C
:1009C800043001F020BB08B5043001F015FBD0ED70
:1009D800007AF8EE677AFCEEE77A17EE900A08BD1F
:1009E8000221202008B50BF041FD20200BF0DEFD90
:1009F800B0FA80F0400908BD2DE9F043052B0D46FB
:100A080090461E46044628BF03264FF001090027DA
:100A18002DED028B9FB003F0C9F9A5F8088001F00D
:100A2800C5FC02F05BFB5E4B28460E960B9303F168
:100A38000073CDF8449003F540730A970C934FF474
:100A48004173CDE90F97ADF83430FFF7C9FF48453A
:100A580040F092800823ADF808000390514A0DEB4E
:100A680003018DF80A700493CDE9120705A801F077
:100A7800AFFBB5F908300AA902A8052B02BF00236D
:100A88000122CDE912230023CDE9023302F070F9E7
:100A9800B5F90830052B03D1424905A801F016FB2A
:100AA800B5F90830042B15D10123002214A903A895
:100AB8001D9314931896ADF85C20CDE919333A4B81
:100AC800159303F1012303F57D03CDE91B2216934A
:100AD80002F04EF93023CDE90536B5F908302E1D60
:100AE800042B53D140F60163ADF80430019801F0AE
:100AF80099FA4FF07C5305A930460793DDE90223A4
:100B080001F05CFA2846FFF753FF04F1700204F580
:100B1800F871264B136120329142FBD1C4F80032A0
:100B28004FF40072C4F8203204F2F620C4F84032C0
:100B3800C4F86032C4F8C432C8231D49C4F8EC3282
:100B48000CF056F8304601F05AFA2846B0EE408AC2
:100B5800FFF739FF07EE900A41462046F8EE677A1C
:100B680088EE270A85ED000A00F0C8FC20461FB071
:100B7800BDEC028BBDE8F08340F60133ADF80030E0
:100B88000098CDE9127901F04DFA72E74FF07E53E3
:100B9800029A05A93046079301F002FAB2E700BFAE
:100BA8000402040428060024000106090820803AEB
:100BB80038D2000806230C4A0C210C48137082F81E
:100BC80041300B4A137082F841300A4A137082F898
:100BD8004130094A137082F841300022074B5A60AD
:100BE8000B2202F0DFBA00BF8E0300302806002473
:100BF8000C0300308A020030080200300C07002481
:100C0800014802F049BB00BF2806002470B52DED4D
:100C1800028BB0EE408A044684B0022502231B22D0
:100C28000121012602F020FAB0EE480A04F1100072
:100C380002231C22012102F017FAB0EE480A04F53B
:100C48001C700D2319221A210095DFED1B8ACDE9AE
:100C5800015501F0F7FB04F5227012231322142129
:100C6800009601F019FD04F28D2017231822112196
:100C7800009601F011FD0023F0EE680A04F17000FF
:100C8800B0EE480A1A46C62101F00AFB0023F0EE2E
:100C9800680AC021B0EE480A1A4604F1900001F033
:100CA800FFFAC4F80855C4F80055C4F8FC5404B059
:100CB800BDEC028B70BD00BF6F12033B30B502253F
:100CC800044600230B220C2100F51C702DED028B2D
:100CD80085B0B0EE408ADFED2E8A0095CDE901554A
:100CE80001F0B0FB04F52570B7EE000A00231422CA
:100CF800012102F0B9F904F52970B7EE000A0023C2
:100D08001322012102F0B0F90423F0EE680A04F17D
:100D18007000B0EE480AC4F8F834C4F80835012267
:100D28000023C021C4F8045501F0BAFAF0EE680AAD
:100D3800B0EE480A04F1900000230122C12101F01D
:100D4800AFFAF0EE680AB0EE480A04F1B0000023EA
:100D58000122C62101F0A4FAF0EE680AB0EE480AB2
:100D68000023012204F1D000C32101F099FA0121E6
:100D780017200BF07BFB012117200BF077FB0121DB
:100D8800112005B0BDEC028BBDE830400BF06EBB06
:100D98006F12033B70B5044600F170060025D4F8C5
:100DA8000835AB4209DCB4F90C35022B0BD104F53C
:100DB8002D70BDE8704001F0C7BA304601352036C5
:100DC80001F0C2FAEBE770BD70B5C0E90023049BDF
:100DD80004460626C3600B7803724B784372FF23E0
:100DE80080F820300023191120689A0001EB811146
:100DF80092B2465403F00F002568013301EB8000DE
:100E0800202B0544A5F80120A5F8032065686E5439
:100E180061680144A1F80120A1F80320E3D104F19D
:100E28001005217A094A41F04001284601F050FC9A
:100E3800284601F096FC617A284641F0400101F00D
:100E48004CFC2846BDE8704001F07DBCC00C002475
:100E58002DE9F84304460021C069204F0BF070FBD0
:100E68000121206A0BF06CFB3B681D4A1D49B3FB4E
:100E7800F2F248684B681B1A9A42FBDC04F11C0624
:100E880004F10C09174D0021DFF85480206A0BF09B
:100E980057FB0021E0690BF053FB3B686968B3FB23
:100EA800F8F26B685B1A9A42FBDC606A0BF07EFB17
:100EB80000384FF0010118BF012006F8010DE06964
:100EC8000BF03EFB3B686968B3FBF8F26B685B1A92
:100ED8009A42FBDC4E45DCD1BDE8F883640000246F
:100EE80040420F00001000E0B0F90C35042B70B53B
:100EF800044603D05A1E92B2012A05D804F51C7084
:100F080001F0C9FA002525E0032BFBD100F5A2600A
:100F1800FFF79EFF04F21B500022072A6FEA020324
:100F280002F1010294BF0021012103F00703102AF6
:100F380003EBC10310F8011F234493F8385541EA25
:100F4800450183F83815E8D1DCE704EB05100135D5
:100F580002F09EF8D4F8FC34AB42F6DC04F52576B2
:100F68000025D4F80435AB4200DC70BD30460135AD
:100F7800103602F08DF8F4E710B50446FFF70AFFC3
:100F88002046BDE81040FFF7AFBF0000DFED1C7A38
:100F980020EE270A13B5B5EEC00AF1EE10FA2CD4EC
:100FA800B4EEE70AF1EE10FAD8BFF0EE407AFCEEA4
:100FB800E77A0268CDED017A9DF8043000EB43032F
:100FC8005C8CC1F3071301F00F0103EB831303EBF0
:100FD80081031A44B2F80130C3F30B03E118C1F3DB
:100FE8000B01A2F8031040F6FE718C4288BF43F44F
:100FF8008053A2F8013002B010BDDFED027AD6E7C7
:1010080000007F4300000000072930B504460D4664
:101018002DED028BF0EE608A87B0B0EE418A29D8B8
:10102800B0F90C35022B25D1144A6B4604F53574FA
:101038009068D168124A03C310685168114A03C303
:101048001068516803C305F1180320460DEB03052A
:1010580015F8181CFFF79AFFB0EE680A15F8101C6F
:101068002046FFF793FFB0EE480A15F8081C204603
:10107800FFF78CFF07B0BDEC028B30BD38D40008F9
:10108800D8D40008E1D40008032907B50FD8B0F96F
:101098000C35022B0BD1074B00F53570019301F18C
:1010A80008030DEB030111F8041CFFF76FFF03B0F1
:1010B8005DF804FB0F191A1B072A08B50B461146E1
:1010C80008D8B0F90C25032A04D123B900F53570E6
:1010D800FFF75CFF08BD012BFCD1C1F10F01F5E75B
:1010E800072908B508D8B0F90C35032B04D11031FD
:1010F80000F53570FFF74AFF08BD0000B0F90C3560
:10110800022B70B504462DED028B1ED100259FEDF4
:101118001E8ADFED1D0AE9B20135B0EE481AB0EEBD
:10112800600A2046FFF770FF082DF2D100259FEDD9
:10113800168AE9B20135B0EE480A2046FFF7A4FF47
:10114800042DF6D1BDEC028B70BD032BFAD100251E
:101158009FED0D8AEEB2B0EE480A002120463246D5
:101168000135FFF7A9FFB0EE480A324601212046B3
:10117800FFF7A2FFB0EE480A31462046FFF7B0FF5E
:10118800082DE7D1DEE700BF00000000F8B5D0E980
:10119800001204460023C0E9002101EB8300B0F8E7
:1011A800035002EB83000133A0F80350102BF4D155
:1011B800002301EB8300B0F8445002EB83000133B5
:1011C800A0F84450102BF4D1FF2304F1100784F841
:1011D800203094F92050012D08DC01356DB2022D24
:1011E80084F8205003D1FF2384F82030F8BD631918
:1011F800002605EB85153846197A41F0400101F0C3
:101208006CFA05EB86036268F1B201361A44384677
:10121800B2F80330B2F8012001F0D8FA102EF0D15C
:10122800D7E708B5B0F80C35023B9BB2012B03D8C1
:1012380000F53570FFF7AAFF08BD00000C23624ACD
:1012480070B52DED028B86B0C0F800350623022557
:1012580007260446C0F808354FF48073B0EE408A7C
:1012680005A9ADF814304FF0FF33C0F8FC6400F561
:101278003570C0F824520093544BFFF7A5FD204663
:10128800FFF73CFF2046FFF7CCFFB0EE480A04F515
:101298001C700E231B221C210095DFED4D8ACDE921
:1012A800015501F0CFF80023F0EE680A04F1700050
:1012B800B0EE480A1A46C12100F0F2FF0023F0EE12
:1012C800680A04F19000B0EE480A1A46C42100F0FA
:1012D800E7FF0023F0EE680A04F1B000B0EE480A18
:1012E8001A46C22100F0DCFF0023F0EE680A04F180
:1012F800D000B0EE480A1A46C52100F0D1FF0023FD
:10130800F0EE680A04F1F000B0EE480A1A46C3216C
:1013180000F0C6FF0023F0EE680A04F58870B0EE0E
:10132800480A1A46C62100F0BBFF0023F0EE680AFF
:1013380004F52D70B0EE480A1A46C02100F0B0FF3F
:10134800B0EE480A2B4620460822012101F08CFE07
:10135800B0EE480A2B4604F110000922012101F0E1
:1013680083FEB0EE480A2B4604F120000A22012130
:1013780001F07AFEB0EE480A2B4604F130000D2247
:10138800012101F071FEB0EE480A2B4604F140003D
:101398001922012101F068FEB0EE480A2B4604F13B
:1013A80050001A22012101F05FFEB0EE480A2B46D8
:1013B8003246012104F1600006B0BDEC028BBDE8A5
:1013C800704001F051BE00BF92040030100400309C
:1013D8006F12033B70B5022504461E2200212B46DE
:1013E8001B262DED028BB0EE408A84B0C0F8FC5469
:1013F800C0F8F85401F038FEB0EE480A2B4604F164
:1014080010001D22002101F02FFE4FF40073384A0E
:1014180003A9ADF80C304FF0FF3304F535701A25E9
:101428000093344BFFF7D0FC2046FFF767FE2046B9
:10143800FFF7F7FE012115200BF018F80121142001
:101448000BF014F8012113200BF010F80023DFED46
:101458002A0AB0EE480A1A4604F17000C12100F0C9
:101468001FFF1C200121C4F81465C4F81005C4F836
:101478002C05C4F818550AF0F9FF30460121C4F8C4
:1014880030650AF0F3FF28460021C4F834550AF005
:10149800EDFF1022002104F21C500BF065FBB0EEAA
:1014A800480A04F5F870C22100F022FFB0EE480A9D
:1014B80004F50470C32100F01BFFB0EE480A04F5E0
:1014C8000C70CA2100F014FFB0EE480A04F514703D
:1014D800C92100F00DFF012117200AF0C7FF0121E3
:1014E800162004B0BDEC028BBDE870400AF0BEBF08
:1014F80096050030140500306F12033B0223A0F854
:101508000C150139C0F8F8340023C0F80835C0F8C4
:101518000435C0F8FC34C0F8003503290BD8DFE8DF
:1015280001F002040608FFF771BBFFF787BEFFF75B
:1015380051BFFFF7C3BB70470623084A137082F8F0
:101548004130074A137082F84130064A137082F816
:101558004130054A137082F84130704796050030D3
:10156800140500309204003010040030D0E905233F
:1015780022B1002B0CBF022004207047181E18BF90
:1015880001204000704700002DE9F04FC04E89B09F
:1015980080468A46A6F11409304600AF154601F088
:1015A800F7FB04464846FFF7E1FF834630B3D9F816
:1015B800043064699E46002B00F07881AB00EB464E
:1015C800012C03F1070323F00703ADEB030D684675
:1015D800ADEB030D6E463BD0022C13D0002C65D02A
:1015E8002A46314673469847012C00F0C280022CE7
:1015F80000F08280002C00F0F780DD462437BD46DD
:10160800BDE8F08F99ED0B7A02460023DFEDA16A61
:1016180008F1040CAB4202F10802E1D258F8231099
:1016280007EE901A5CF823100233F8EEE77A67EEBB
:10163800A67A67EE877A42ED027A07EE901AF8EEFC
:10164800E77A67EEA67A67EE877A42ED017AE1E7F4
:1016580099ED0B7A01460022DFED8F6A08F1040C40
:10166800AA4201F10801BBD258F8223083F40003E2
:10167800A3F5000307EE903A5CF822300232F8EE48
:10168800E77A83F40003A3F5000367EEA67A67EE12
:10169800877A41ED027A07EE903AF8EEE77A67EE3C
:1016A800A67A67EE877A41ED017AD9E799ED0B7A48
:1016B80002462346DFED796A08F10401AB4202F1E4
:1016C80008028DD238F923C007EE90CA31F923C039
:1016D8000233F8EEE77A67EEA67A67EE877A42ED8C
:1016E800027A07EE90CAF8EEE77A67EEA67A67EE16
:1016F800877A42ED017AE1E799ED046A00239FEDCC
:10170800687A0AF10402DFED676AAB42BFF475AF8D
:10171800D6ED007A66EE277AF4EEC77AF1EE10FA83
:1017280040F2B080F4EEE67AF1EE10FAA8BFF0EEDF
:10173800667AFEEEE07A17EE901AD6ED017A66EE3A
:10174800277A4AF82310F4EEC77AF1EE10FA40F23D
:101758009C80F4EEE67AF1EE10FAA8BFF0EE667A15
:10176800FEEEE07A083617EE901A42F8231002339C
:10177800CBE799ED046A00239FED497A0AF1040248
:10178800DFED486AAB42BFF438AFD6ED007A66EEBB
:10179800277AF4EEC77AF1EE10FA6DD9F4EEE67A0C
:1017A800F1EE10FAA8BFF0EE667AFEEEE47A17EED4
:1017B800901AD6ED017A66EE277A4AF82310F4EEED
:1017C800C77AF1EE10FA5AD9F4EEE67AF1EE10FA89
:1017D800A8BFF0EE667AFEEEE47A083617EE901AA5
:1017E80042F823100233CDE799ED046A0AF10402A6
:1017F8009FED2B7ADFED2B6ADFED2B5AAC42BFF45D
:10180800FCAED6ED007A66EE277AF4EEC77AF1EEF2
:1018180010FA2BD9F4EEE67AF1EE10FAA8BFF0EE42
:10182800667A67EEA57AFDEEE77A17EE903AD6ED7E
:10183800017A66EE277A1BB24AF82430F4EEC77AAA
:10184800F1EE10FA15D9F4EEE67AF1EE10FAA8BF27
:10185800F0EE667A67EEA57A0836FDEEE77A17EEBF
:10186800903A1BB242F824300234C7E7F0EE477AC8
:10187800D7E7F0EE477AEDE7F0EE477A95E7F0EE36
:10188800477AA8E7F0EE477A53E7F0EE477A67E73A
:101898003007002400000030000000340000003849
:1018A80004FF7FBF04FF7F3F00FEFF4656F8143C4D
:1018B8003B61002B3FF4A2AE301DC7F80CD001F0FD
:1018C80075FABBF1020F4FEA8B01F86114BF6A0089
:1018D8002A460731BBF1020F4FEA820321F00701C4
:1018E80003F1070323F00703ADEB030DB2FBFBF293
:1018F800C7F814D0ADEB030D7B69EC46ADEB010DD9
:1019080003EB82036846ADEB010D7969BB616E4656
:1019180043600CEB820301604FEA8201CDF800C0FE
:10192800019308D0BA690B440A4402930B448260BD
:101938000A440393C260012C6BD0022C12D0002CF5
:1019480000F0D0806A0831463B699847012C00F0C6
:10195800AB81022C00F02181002C00F02082D7F806
:101968000CD04BE6DFF834E30021FA69DEF82030CA
:101978009FEDC77A03EB820C08F104037B60A94250
:10198800E0D24B087A69DEED0B6ABBF1020F02EB7D
:1019980083024FEA8309BA6058F8212007EE902A9B
:1019A800BA68F8EEE77A67EE877A67EEA67AC2ED4C
:1019B800007ABA6902EB83037A6852F8212007EEAD
:1019C800902ABA60F8EEE77A67EE877A67EEA67A29
:1019D800C3ED007A19D0DCED007A8268F8EEE77A78
:1019E800C3684A444B4467EE877A67EEA67AC2ED2D
:1019F800007ADCED017ADEED0B6AF8EEE77A67EE45
:101A0800877A67EEA67AC3ED007A02310CF1080CEA
:101A1800B5E7DFF888C20022FB69DCF820109FEDEB
:101A28009D7A01EB830108F104037B60AA4289D205
:101A38004FEA52097B69DCED0B6ABBF1020F03EB3D
:101A480089034FEA890EBB6058F8223083F40003FB
:101A5800A3F5000307EE903ABB68F8EEE77A67EE65
:101A6800877A67EEA67AC3ED007ABB6903EB89092A
:101A78007B6853F8223083F40003A3F5000307EED4
:101A8800903AF8EEE77A67EE877A67EEA67AC9EDBC
:101A9800007A24D0836803EB0E090B6883F40003F3
:101AA800A3F5000307EE903AC368F8EEE77A9E4480
:101AB8004B6867EE877A83F40003A3F5000367EEAB
:101AC800A67AC9ED007A07EE903ADCED0B6AF8EEDB
:101AD800E77A67EE877A67EEA67ACEED007A023269
:101AE8000831A3E7DFF8B4E12146FA69DEF82030CF
:101AF8009FED697A03EB820C08F104037B60A9422D
:101B0800BFF420AF4B087A69DEED0B6ABBF1020F18
:101B180002EB83024FEA8309BA6038F9212007EE05
:101B2800902ABA68F8EEE77A67EE877A67EEA67ABF
:101B3800C2ED007ABA6902EB83037A6832F9212090
:101B480007EE902AF8EEE77A67EE877A67EEA67ACC
:101B5800C3ED007A1DD0BCF90030826807EE903AD8
:101B6800C3684A44F8EEE77A4B4467EE877A67EE33
:101B7800A67AC2ED007ABCF90420DEED0B6A07EE06
:101B8800902AF8EEE77A67EE877A67EEA67AC3EDD1
:101B9800007A02310CF1080CB1E7404B0AF1040459
:101BA8009FED3F7A986A93ED046AFB69DFED3D6A21
:101BB80000EB83000023AB42BFF4D1AE5A08316872
:101BC80001EB82014FEA820CD1ED007A66EE277AAA
:101BD800F4EEC77AF1EE10FA40F27F81F4EEE67A7D
:101BE800F1EE10FAA8BFF0EE667A7168FEEEE07AC0
:101BF800614417EE902AD1ED007A4AF8232066EE68
:101C0800277AF4EEC77AF1EE10FA40F26981F4EE21
:101C1800E67AF1EE10FAA8BFF0EE667AFEEEE07A08
:101C2800BBF1020F17EE902A44F823202DD0B1689B
:101C38006144D1ED007A66EE277AF4EEC77AF1EEC8
:101C480010FA40F25081F4EEE67AF1EE10FAA8BFED
:101C5800F0EE667AF268FEEEE07A6244C0ED007A51
:101C6800D2ED007A66EE277AF4EEC77AF1EE10FA32
:101C780040F23C81F4EEE67AF1EE10FAA8BFF0EEFD
:101C8800667AFEEEE07AC0ED017A0233083092E718
:101C98000000003000000034000000381C07002459
:101CA80004FF7FBF04FF7F3F924B0AF104049FEDBE
:101CB800927A986A93ED046AFB69DFED906A00EB0B
:101CC80083000023AB42BFF44AAE5A08316801EBE7
:101CD80082014FEA820CD1ED007A66EE277AF4EEA3
:101CE800C77AF1EE10FA40F2EC80F4EEE67AF1EE03
:101CF80010FAA8BFF0EE667A7168FEEEE47A6144E5
:101D080017EE902AD1ED007A4AF8232066EE277A5A
:101D1800F4EEC77AF1EE10FA40F2D680F4EEE67AE5
:101D2800F1EE10FAA8BFF0EE667AFEEEE47ABBF1A7
:101D3800020F17EE902A44F823202DD0B168614491
:101D4800D1ED007A66EE277AF4EEC77AF1EE10FA52
:101D580040F2BD80F4EEE67AF1EE10FAA8BFF0EE9C
:101D6800667AF268FEEEE47A6244C0ED007AD2ED5B
:101D7800007A66EE277AF4EEC77AF1EE10FA40F2AE
:101D8800A980F4EEE67AF1EE10FAA8BFF0EE667AD2
:101D9800FEEEE47AC0ED017A0233083092E7554B43
:101DA8000AF104009FED547A996A93ED046AFB697D
:101DB800DFED526A01EB8301DFED515AAC42BFF40B
:101DC800CEAD6308326802EB83024FEA830CD2ED92
:101DD800007A66EE277AF4EEC77AF1EE10FA64D943
:101DE800F4EEE67AF1EE10FAA8BFF0EE667A67EE46
:101DF800A57A72686244FDEEE77A17EE903AD2ED62
:101E0800007A66EE277A1BB24AF82430F4EEC77AD5
:101E1800F1EE10FA4CD9F4EEE67AF1EE10FAA8BF1A
:101E2800F0EE667A67EEA57ABBF1020FFDEEE77A6F
:101E380017EE903A1BB240F8243033D0B2686244AF
:101E4800D2ED007A66EE277AF4EEC77AF1EE10FA50
:101E580031D9F4EEE67AF1EE10FAA8BFF0EE667A20
:101E680067EEA57AFDEEE77A17EE903A1BB20B60A3
:101E7800F3686344D3ED007A66EE277AF4EEC77A06
:101E8800F1EE10FA1AD9F4EEE67AF1EE10FAA8BFDC
:101E9800F0EE667A67EEA57AFDEEE77A17EE903AED
:101EA8001BB24B600234083188E7F0EE477A9EE7B0
:101EB800F0EE477AB6E7F0EE477AD1E7F0EE477AE8
:101EC800E8E7F0EE477A17E7F0EE477A2DE7F0EE0D
:101ED800477A46E7F0EE477A5AE7F0EE477A84E623
:101EE800F0EE477A9AE6F0EE477AB3E6F0EE477AF4
:101EF800C7E600BF1C07002404FF7FBF04FF7F3F25
:101F080000FEFF467FB5044601A8089E04F10805B7
:101F180080E80E0007C885E80B00D4ED047AF5EEDA
:101F2800C07AF1EE10FA02DC012004B070BDF7EEC1
:101F3800006A86EEA77A84ED0B7A002EF4D020464C
:101F480040F8146F00F024FF03690020E360024B9F
:101F5800E361024B6362E8E7182600301806003098
:101F6800836937B504460D4643B1836800221830AB
:101F780000929B000269816800F00CFFA36804F1DD
:101F88001400064A9B000092626AE16900F002FFB1
:101F980000202560606003B030BD00BF91150008C7
:101FA80007B503460448186000920EC9FFF7AAFF58
:101FB80003B05DF804FB00BF1C070024F0B50B4D0F
:101FC80087B017461E46056003AC07C984E80700BA
:101FD8000097284694E80E00FFF794FF044B002072
:101FE800AE612B62034BAB6207B0F0BD1C07002447
:101FF800183600301816003000680830704700683E
:10200800143000F0D0BE08B50068FFF7A9FF002023
:1020180008BD0000024B0022C3E90522704700BF3B
:102028001C0700241FB50124ADF80C0003A8ADF867
:102038000E4000F05FFA214603A800F00BFB204693
:1020480001F078F8002103A800F004FB204601F015
:1020580071F8214603A800F0FDFA04B010BD70B570
:102068000E460179044600684908154601F04AF908
:102078002068314603681B6898470021206801F0F2
:10208800ECF9012221792068D14001F05CFA20683E
:1020980003685B6998472870002070BD70B50E46CC
:1020A8000179044600684908154601F02BF92068B3
:1020B800314603681B6898472068294603681B68EF
:1020C8009847206801F044FA002070BD37B50446EF
:1020D800084621602E4901F0F3F820681B221A23D4
:1020E8000021C0E9212301F0F9FA8C230DF1050242
:1020F800402123712046FFF7B2FF9DF805204021BB
:10210800204602F07F02FFF7C9FF042001F012F811
:102118000DF1050240212046FFF7A1FF9DF805209B
:102128004021204602F0BF02FFF7B8FF042001F06B
:1021380001F80DF1060243212046FFF790FF0DF14B
:10214800070248212046FFF78AFF9DF807509DF8AF
:102158000620432145F00105204642F00102FFF721
:102168009DFF2A4648212046FFF798FF0DF10502FA
:1021780040212046FFF773FF9DF8052040212046A7
:1021880002F0CF02FFF78AFF002003B030BD00BF86
:10219800801A060070B5154604460E46017C006894
:1021A80001F0A8F82068C5F3002343EA4601036854
:1021B800C9B21B6898472068E9B203681B6898474A
:1021C800206801F0C5F90A2000F0B4FF002070BDB6
:1021D80038B503460446154643F8042B07C983E877
:1021E800070028462D4901F06BF820681B2274234C
:1021F8000021C0E9212301F071FAA37900220F21FF
:102208001A3320462374FFF7C5FF17220021204602
:10221800FFF7C0FF172201212046FFF7BBFF00226E
:1022280002212046FFF7B6FF002203212046FFF7D0
:10223800B1FF122204212046FFF7ACFF002205213E
:102248002046FFF7A7FF237906212046002B14BF5D
:1022580062224222FFF79EFF07212046D4E902238B
:102268001A43637942EA4312237983F0010342EA6D
:102278008312D2B2FFF78EFF002208212046FFF713
:1022880089FF002209212046FFF784FF0122092146
:102298002046FFF77FFF002038BD00BF801A0600E8
:1022A800F8B50D46044600211E46284617462DED72
:1022B800028BB0EE408AF0EE608A0AF0D7F8F6EEAC
:1022C800007A002384ED028A28EE288A2570E360CC
:1022D800A36128EE278A2777F7EE007A667787EEDC
:1022E800887AC4ED057ABDEC028B84ED017AF8BDDD
:1022F80038B50D460446002128462DED028BB0EE78
:10230800408A0AF0B3F8DFED0F7AF7EE006A00238F
:10231800257084ED028A28EE278AF6EE007AE360BB
:102328004FF0804328EE278A63614FF48073C4ED31
:10233800067A86EE887AA383BDEC028B84ED017A57
:1023480038BD00BF6F12033B10B5044600780AF091
:1023580077F807EE900A94ED047AF8EE677A237F0F
:1023680067EE877A1BB1B7EE007A77EE677A94ED5D
:10237800067AFFEE006A637F77EEC77A94ED057AF6
:1023880094ED030A002B94ED016A67EE877AB7EEA5
:10239800007A18BFB0EE667AF0EE406AD7EE876A28
:1023A800A6EE260A84ED030A10BD0000244B07B5EB
:1023B800D3F8D8200B2042F00102C3F8D82000221D
:1023C800D3F8D830114603F001030193019B02F0C2
:1023D80039FC0B2002F068FC00220C20114602F0A8
:1023E80031FC0C2002F060FC00220D20114602F0A6
:1023F80029FC0D2002F058FC00220E20114602F0A4
:1024080021FC0E2002F050FC00220F20114602F0A1
:1024180019FC0F2002F048FC00221020114602F09F
:1024280011FC102002F040FC00221120114602F09D
:1024380009FC112003B05DF804EB02F035BC00BFC5
:10244800004402582DE9F04104461E460023154673
:1024580008462DED028B63614FF6FF73B0EE408A9C
:102468009DF824802382E274A1749DF820109DF8C1
:10247800287009F0FBFF4146284609F0F7FFB0EE47
:10248800480A3B46324620460121BDEC028BBDE896
:10249800F04100F0E9BD70B50546807C0AF086F889
:1024A8000446E87C0AF082F80646284600F0F0FD6B
:1024B8002B7C6A7C44EA430346EA42005BB242B2A0
:1024C80003F00F01C0B22B740E2901D151070CD0B3
:1024D80002F00F020E2A0AD103F00703B3FA83F3BE
:1024E8005B095B4268746B6170BD0123FAE70023E6
:1024F800F8E7000030B583788FB00446022B21D06E
:10250800032B02D0591E4B424B410A93E378012B0F
:1025180003D09A1E534253415B000B93002320467D
:102528000C9300F0A9F80546204600F0ADF8237892
:102538000990082B15D8DFE803F0071A283644520B
:10254800606E7C001123E0E7414BD3F8E02042F0B5
:102558000102C3F8E020D3F8E03003F00103009350
:10256800009B09A9284603F031FC0FB030BD384B59
:10257800D3F8E02042F00202C3F8E020D3F8E030BC
:1025880003F002030193019BEBE7314BD3F8E02002
:1025980042F00402C3F8E020D3F8E03003F004036B
:1025A8000293029BDDE72A4BD3F8E02042F00802B1
:1025B800C3F8E020D3F8E03003F008030393039B4B
:1025C800CFE7234BD3F8E02042F01002C3F8E02015
:1025D800D3F8E03003F010030493049BC1E71C4BCD
:1025E800D3F8E02042F02002C3F8E020D3F8E0302E
:1025F80003F020030593059BB3E7154BD3F8E020C0
:1026080042F04002C3F8E020D3F8E03003F0400382
:102618000693069BA5E70E4BD3F8E02042F0800214
:10262800C3F8E020D3F8E03003F080030793079B5A
:1026380097E7074BD3F8E02042F48072C3F8E02014
:10264800D3F8E03003F480730893089B89E700BF50
:102658000044025870B506460D4600F00DF80446D1
:10266800304600F011F82A1E0146204618BF012204
:10267800BDE8704003F092BC0278024B53F8220088
:10268800704700BF0CD500084278024B33F812009F
:10269800704700BFEAD4000870B504461D469DF88F
:1026A8001030164608462170237101216270A5700A
:1026B80009F0DCFE3046012109F0D8FE2846012148
:1026C800BDE8704009F0D2BE0368C9B21B6818475C
:1026D8000023C2600170436070470170704710B5F5
:1026E80004460178C06800F005FEE06800F030FF9D
:1026F8006060B0FA80F0400910BD70B504460E461F
:1027080001781546C06800F0F5FDE06831460368B9
:102718001B689847E068294603681B689847E06883
:1027280000F016FF606070BD10B401294FF000047E
:10273800446004D9FD225DF8044B426070475DF89F
:10274800044BFFF7DABF0021202210B50446416090
:10275800FFF7EAFF362220460121BDE81040FFF7C7
:10276800E3BF38B504460021C06800F0B7FF204633
:10277800FFF7B5FF054610B12046FFF7E4FF2846EE
:1027880038BDF8B504460F4601781646C0681D46A0
:1027980000F0B0FDE068394603681B689847E068B8
:1027A800F1B2FFF791FFC6F30421E068FFF78CFF51
:1027B800E068E9B2FFF788FFC5F30421E068FFF796
:1027C80083FFE06800F0C4FE6060F8BD30B40F29F4
:1027D8004FF00005456003D9FE2330BC43607047C5
:1027E8008900063130BC01F0FE01FFF7CABF0000C6
:1027F800014804F059BE00BF5C070024074B9A1C2F
:102808001B665A661A1D9A669A1DDA6603F1080253
:102818001A6703F10A025A67704700BF4C07002481
:10282800D1F800C0BCF1010F2DE9F043044685B092
:102838000F464FF0000800F38A800E46C0F8508219
:102848000546C0E992880FCE0FC50FCE0FC5424B83
:10285800009303F580630193A3F57873029303F55E
:102868008063039304AB03EB8C0C96E803005CF8DD
:10287800103C85E80300A3625CF8083CC4F8C0304B
:102888003B69042B09D8DFE803F0033F42454800C1
:102898004FF4FA53A364C4F8E030BB693A6A002BDA
:1028A8003DD1003A18BF0122C4E90B23FB697A6ABB
:1028B800002B3BD1003A18BF012204F12800C4E9DB
:1028C80031237B69022B9FBF244A12F80380244AD4
:1028D80012F8039000234246636449466363E36544
:1028E800C4F8DC30C4F8CC30C4F8F430C4E90F3391
:1028F800C4E91533C4E93533C4E93B33022306F090
:10290800A1FED0B1FFBEFEE74FF47A53C2E74FF401
:10291800FA43BFE74BF68033BCE7124BBAE7002A0D
:102928004FF0010314BF03220222BDE7002A4FF033
:10293800010314BF03220222BFE70223424649468D
:1029480004F1C00006F07EFE10B1FFBEFEE70120D4
:1029580005B0BDE8F08300BF0458014053D5000816
:1029680050D5000800770100026838B561BB036ADA
:1029780000F1280500F5AC74013B18BF01239B0149
:10298800EAB91D4AC0F8582157224FF480514FF434
:102998008070C4E9012300234FF48062C4E9033244
:1029A8004FF480426362C4E905124FF40032C4E96F
:1029B8000702204602F000FCD0B1FFBEFEE70F4A36
:1029C800C0F858215922E0E7436A00F1C00500F534
:1029D800E874013B18BF01239B0122B9084AC0F8DB
:1029E800D0215822D1E7074AC0F8D0215A22CCE793
:1029F800C5E92044A56338BD1000024058000240D4
:102A0800280002407000024010B4D0F854420B462F
:102A180064B1D0E99312D0F8480201EB830100EBCE
:102A28008300234652085DF8044B18475DF8044BB1
:102A380070472DE9F8439CB2C0F85032836990463C
:102A480007468946012B00F1280500F1C006C0E9B8
:102A58009212089AC0F854221BD1036A2246012B0D
:102A68000DD1284606F0F0FE7B6A2246012B0BD1D9
:102A78004946304606F0E8FE0020BDE8F8834146A6
:102A8800284606F075FEEFE74146304606F070FE30
:102A9800F2E7436A2246012B09D1304606F0D4FEFC
:102AA8003B6A2246012B07D149462846E2E74146C0
:102AB800304606F05DFEF3E741462846E6E70000AB
:102AC8000269042A9DBF044B03EB820393ED000ABD
:102AD8009FED020A704700BF3CD5000800803B47C5
:102AE8002DE9F043831D8BB004460593031D06931F
:102AF80000F10803079300F10A03089300F10C039F
:102B08000993836963B3C569B5FA85F56D0901232E
:102B180002220DF1140800274FF006090393CDE9AE
:102B2800012358F8046B227933789A4204D16179E9
:102B38007278914200D16DB122689AB1012A14D0FD
:102B48003046FFF7A1FD00903046FFF795FD694636
:102B580003F03CF90137052FE3D10BB0BDE8F08352
:102B68000125D4E7CDF81090EAE733B97378022B42
:102B78000CBF08230A230493E2E70A23FBE70000BB
:102B880070B5036888B0434E0546B34202D0424A46
:102B9800934231D1414C4248D4F8E03043F010031D
:102BA800C4F8E030D4F8E03003F010030093009B41
:102BB800D4F8F03043F48003C4F8F030D4F8F0309F
:102BC80003F480030193019BFFF78AFFD4F8D83000
:102BD800296843F001033248891BC4F8D830D4F877
:102BE800D83018BF012103F001030293029B08B0FB
:102BF800BDE87040FFF7B8BE2A4EB34202D02A4A59
:102C0800934245D1254C2948D4F8E03043F00103DC
:102C1800C4F8E030D4F8E03003F001030393039BD9
:102C2800D4F8E03043F00803C4F8E030D4F8E030DA
:102C380003F008030493049BD4F8E03043F0400306
:102C4800C4F8E030D4F8E03003F040030593059B66
:102C5800D4F8F03043F40003C4F8F030D4F8F0307E
:102C680003F400030693069BFFF73AFFD4F8D83025
:102C7800296843F001030D48891BC4F8D830D4F8FB
:102C8800D83018BF012103F001030793079BAEE773
:102C980008B070BD0458014024580140004402584F
:102CA800C4070024045C0140245C0140200A00247D
:102CB800014802F0B5BE00BF1C090024014802F01B
:102CC800AFBE00BF94090024014802F0A9BE00BFAE
:102CD800780B0024014802F0A3BE00BFF00B0024CB
:102CE80003680D4A934202D02032934206D10B4B1F
:102CF80000211846C3F85812FFF786BE084A9342C7
:102D080002D02032934206D10448002100F5177002
:102D1800C0F85812F0E7704704580140C40700246F
:102D2800045C014003680F4A934202D02032934268
:102D380007D10D48D0F850124908C0F85812FFF7CB
:102D480063BE0A4A934202D02032934208D1064811
:102D5800D0F8AC1400F517704908C0F85812EEE71F
:102D6800704700BF04580140C4070024045C0140B8
:102D780010B402464FF417740868044B04FB003083
:102D88005DF8044B1060FFF74BBD00BFC40700247B
:102D98000068704713B5049C00940068FFF749FE6B
:102DA800002002B010BD0068FFF78ABE0368D3F8A0
:102DB800580270472DE9F04F3B4C89B0A063037867
:102DC8001BB1002009B0BDE8F08F20204021374A10
:102DD8004FF0020A06934FF00408E3624FF480575D
:102DE80001254FF00309C4E905014FF4C07104EB54
:102DF8000800CDF81490C4E90123C4E90713072398
:102E08004FF400610822CDE901A30A23C4E9091798
:102E18000DEB08010793C4E90352CDE9038206F0DC
:102E2800C7FD064600283CD14FF0100B3A460DEB83
:102E380008010090049004EB08000195CDE902B563
:102E480006F0DEFD642000F0F1FF3A460DEB0801C4
:102E580004EB0800CDE901ABCDE9035606F0D0FD3F
:102E68003A460DEB080104EB0800CDE9019BCDE9DA
:102E7800038606F0C5FD40F232230DEB08013A4601
:102E8800009304EB0800009B03950493CDE9018BA4
:102E980006F0B6FD40F6060104EB080006F0CFFD8B
:102EA8008FE728468EE700BF800C0024404100527F
:102EB8002DE9F04300238FB00B93624B1E68002E60
:102EC80040F0BD800122022703250C241A6009A9BD
:102ED8005D4B5E48D3F8D420DFF8889142F48052E5
:102EE800C3F8D420D3F8D42002F480520192019A76
:102EF800D3F8E02042F01002C3F8E020D3F8E02035
:102F080002F010020292029AD3F8E02042F0400246
:102F1800C3F8E020D3F8E02002F040020392039ABD
:102F2800D3F8E02042F00802C3F8E020D3F8E0200C
:102F380002F008020492049AD3F8E02042F4807266
:102F4800C3F8E020D3F8E02002F480720592059AD5
:102F5800D3F8E02042F08002C3F8E020D3F8E02064
:102F680002F080020692069AD3F8E02042F020028E
:102F7800C3F8E020D3F8E02002F020020792079A75
:102F8800D3F8E02042F00402C3F8E020D3F8E030A0
:102F980003F004030893089B4FF68373CDE90C54A0
:102FA800CDE9093702F012FF48F2371309A928487A
:102FB8000D94CDE90937CDE90B6502F007FF4CF216
:102FC800037309A923480D94CDE90937CDE90B65A9
:102FD80002F0FCFE40F2FF6309A91F480D94CDE9F9
:102FE8000937CDE90B6502F0F1FE4FF60C7309A91C
:102FF8001A480D94CDE90937CDE90B6502F0E6FED4
:103008004FF63F0309A916480D94CDE90937CDE9D4
:103018000B6502F0DBFED9F838000130FFF72CFB16
:103028008046D9F838000130FFF72EFB09A90D9426
:10303800CDE909074046CDE90B6502F0C7FE0FB0A0
:10304800BDE8F0837C0C00240044025800100258AC
:1030580000180258000C025800200258001C0258A0
:1030680000140258800C0024B7EE007A10B4C7EEA2
:10307800007A044610460022217019462273002265
:103088006073A260C4ED017A5DF8044B09F0EEB9F3
:1030980010B50446407B09F089FA237B22785B004F
:1030A8005BB26AB1C2B2B2FA82F252091343DBB21E
:1030B800A3F17F022373012A04D80023A36010BD63
:1030C80042B2F3E7FF2B01BFD4ED027A94ED017A07
:1030D80077EE877AC4ED027AF1E700001FB501F0B8
:1030E80017FE4FF04052124B01246846ADF80040DD
:1030F800CDE901234FF48073039301F027FE0023E9
:1031080040F2011268468DF801408DF80D308DF8B7
:103118000A301923ADF80E208DF808304FF04043DF
:10312800019301F013FE042001F000FE04B010BD6D
:103138000E00010300F07ABE014B00221A607047AE
:10314800BC0C002400207047028BC08A101A7047FC
:10315800C28A0346018B914283BF0169885C0132B0
:103168004FF0FF3088BFDA827047028BC38A9A42D9
:1031780086BF0269D05C4FF0FF307047806DD0F891
:10318800DC302BB10023D43020F8B23CC368184798
:103198007047836810B5044613B103220146984767
:1031A800204610BD70B54FF47A730E4600211546BF
:1031B8002C4A0446C0E90113034643F8C42B9C2259
:1031C800C0F8C410C3E90111C0E93411C0E93611CF
:1031D800C0F8E010283009F0C7FCF3B2202B19D84A
:1031E800214A06F4E06652F823301E43EBB2C4F8D5
:1031F8008460202B22D81C4A05F4E06552F823305D
:103208001D4300232046C4F88850E36123842361CA
:10321800A38270BD06F0C002C02A0CD1CB2B0AD8FD
:1032280006F03F02114B06F4E06653F822200E4BDD
:1032380053F82230D9E74FF0FF36D7E705F0C00240
:10324800C02A0CD1CB2B0AD805F03F02074B05F456
:10325800E06553F82220044B53F82230D0E74FF0B2
:10326800FF35CEE760D500081CDB0008ECDA000863
:1032780038B50446283000F065FBE06918B109F05C
:1032880087FB0023E36100252069258410B109F03C
:103298007FFB2561A58238BD38B5084B0546044635
:1032A80045F8D43BFFF7E4FF2846FFF772FF04F127
:1032B800C400FFF76EFF204638BD00BF60D5000888
:1032C80038B500F128050446284600F0B3FB94F809
:1032D800BE304BB92846054900F098FC28460449F9
:1032E800BDE8384000F08BBC38BD00BF8531000810
:1032F800413300080123994080F824300023817667
:10330800438470470123994080F824300023817654
:103318004384704738B5838A05460C468B4209D2E8
:103328002029006938BF2024214609F0E7FB10B1A5
:103338002861AC8238BDFEE773B5846D0546866E9C
:10334800D4F8CC30E3B1E28A238B9A4218D33146C1
:103358002046FFF7DFFF324605F17401206909F0C6
:1033680047FC00232683E382D4F8CC3001960BB9BE
:1033780009F04EFED4F8D03001A904F1C4009847F2
:1033880002B070BDB1F5806F70B505460C4610D817
:10339800038C99420AD920290E46C06938BF2026D5
:1033A800314609F0ABFB18B1E8612E84204670BDA8
:1033B800FEE70024FAE713B590F8243004468DF8A8
:1033C80007107BB1418C0131FFF7DCFF40B1638C02
:1033D80001209DF80710E269D154638C013363849E
:1033E80002B010BD01220DF10701283000F036FBB4
:1033F800B0FA80F04009F3E770B590F8243004463D
:103408000E46154693B1418C1144FFF7BBFF10B926
:103418000025284670BD638C2A46E0693146184469
:1034280009F0E6FB638C2B446384F2E792B2283000
:1034380000F014FB0028EBD1EBE70346006918B154
:103448009A8A002109F090BB70470346C06918B1F9
:103458001A8C002109F088BB704738B50446C9B9F1
:10346800AA23A36594F8BE30012B16D1638C04F10E
:103478002800E269A17E00F071FB042828BF04201F
:10348800C5B22046FFF7E1FF0023638484F82430A7
:10349800284638BD4FF42A43E3E70425F8E72DE929
:1034A800F04790F8BEA004460F461546BAF1010F42
:1034B80098469DF820609DF8249039D17F001146E8
:1034C800FFF728FFFFB286B1032E4FF0000384F800
:1034D80024A028BF0326A7766384013EF6B2FF2EF8
:1034E8001AD100212046FFF7B8FFB9F1000F1CD10F
:1034F800AA23A36539462B46226904F128002E46E3
:1035080000F0C6FA00239842E3821CBF1D462E46EF
:1035180028462683BDE8F087F1002368204628FA6C
:1035280001F11B68C9B29847D7E74FF42A43E0E78F
:103538000020EFE707B5019300230093FFF7AFFFE3
:1035480003B05DF804FB0123D2B2C9B2FFF7F2BFA2
:103558000121FFF782BF38B500250446C5820583DF
:10356800FFF76BFF20466584FFF76FFF38BD00004B
:103578002DE9F0410446D0F8840008F0B5FE00219A
:1035880008F074FFD4F88430C3F303120A2A44D82D
:10359800264D03F00F03264F55F8222057F8233005
:1035A800126993433FD0D4F8880008F09DFE0121AA
:1035B80008F05CFF1F4BD4F888001B681E4CC0F352
:1035C800031100F00F02B3FBF4F30A24A14204FB39
:1035D80003F325D857F822701426184A4FEA074EE5
:1035E80055F821C0CCF818E0D2F804805468A4EB50
:1035F8000804A342FADCCCF81870D2F804C0546866
:10360800A4EB0C04A342FADC013EE9D108F06CFEFD
:103618003146BDE8F04108F029BF00231B69FFDEF1
:1036280000239B61FBE7BDE8F08100BF0C0000248C
:10363800E8D500086400002440420F00001000E0B4
:103648002DE9F041002504461F460E46C5829046E6
:103658000583FFF7F2FE20466584A576FFF7F5FEA1
:10366800D4F8DC30C4F8804033B104F1D40103222B
:1036780008469847C4E937550023012E84F8BF80CF
:1036880084F824304FEA460384F8C07084F8253063
:103698000CBF0123002384F8BE3002D12046FFF777
:1036A80067FF04F1280594F825200949284600F009
:1036B80047F894F8BE304BB92846064900F0A6FAF8
:1036C80028460549BDE8F04100F099BABDE8F08107
:1036D800A086010085310008413300080A4600230E
:1036E8000121FFF7ADBF00000B220C210148FFF7B5
:1036F80059BD00BFC00C00240148FFF7CDBD00BF75
:10370800C00C0024084B0246984208D9074B98423F
:1037180007D9074907488A4288BF002070470648EA
:1037280070470648704700BFA0860100801A06004F
:1037380040420F001A0980108A62E0303211D0200E
:10374800F0B50E4685B015460446002800F0DF8027
:103758007049C06D08F034F807466F49206E08F0CC
:103768002FF80146002F00F0D280002800F0CF800B
:10377800384608F04CF82060002800F0C880674BF5
:10378800271D98425AD1664BD3F8E82042F400121C
:10379800C3F8E820D3F8E82002F400120092009A57
:1037A800D3F8902042F40012C3F89020D3F8902068
:1037B80022F40012C3F890205A4B63665A4B1F60DC
:1037C8005549206E07F0E4FF5249E06D07F0E0FF2D
:1037D800236830466360FFF795FF01230221C4E99F
:1037E80002050025B4F96400C4E9043594F897305B
:1037F8002A46A5615B1B84F8455018BF0123DB04EA
:10380800236294F898305B1B18BF01235B04636242
:1038180001F018FAB4F9640001F046FA2A460221C8
:10382800B4F9660001F00EFAB4F9660001F03CFA4A
:10383800384602F01CFD002865D0FEE73B4B984255
:103848001DD1374BD3F8E82042F48002C3F8E820B2
:10385800D3F8E82002F480020192019AD3F890206C
:1038680042F48002C3F89020D3F8902022F480021A
:10387800C3F890202E4B63662B4B5F60A0E72D4B5F
:1038880098421DD1264BD3F8E82042F40002C3F831
:10389800E820D3F8E82002F400020292029AD3F852
:1038A800902042F40002C3F89020D3F8902022F42C
:1038B8000002C3F89020204B63661B4B9F607FE794
:1038C8001E4B98427FF47CAF03F50A33D3F8F420FB
:1038D80042F08002C3F8F420D3F8F42002F080020A
:1038E8000392039AD3F89C2042F08002C3F89C20EC
:1038F800D3F89C2022F08002C3F89C20104B63660A
:10390800094BDF605CE70223A06684F8953005B0B8
:10391800F0BD00BF90D4000848D40008005400400F
:10392800004402581F002000A40D00240058004045
:1039380021002200005C004048004900001C00589B
:103948005F00600010B50446B0F9640001F0BAF9F0
:10395800B4F9660001F0B6F9201D02F0DEFC03217F
:10396800206E07F083FE0321E06D07F07FFE2368D9
:103978002B4A934213D12B4BD3F8902042F40012D8
:10398800C3F89020D3F8902022F40012C3F89020B6
:10399800D3F8E82022F40012C3F8E82010BD224A28
:1039A800934211D11F4BD3F8902042F48002C3F800
:1039B8009020D3F8902022F48002C3F89020D3F806
:1039C800E82022F48002E7E7184A934211D1154B08
:1039D800D3F8902042F40002C3F89020D3F8902046
:1039E80022F40002C3F89020D3F8E82022F4000261
:1039F800D2E70F4A9342D1D10A4BD3F89C2042F028
:103A08008002C3F89C20D3F89C2022F08002C3F8DF
:103A18009C20D3F8F42022F08002C3F8F420BDE7FC
:103A2800005400400044025800580040005C004028
:103A3800001C005810B504460846FFF763FE62688C
:103A4800136823F001031360A060201D02F00FFC2F
:103A58006268136843F00103136010BD202A30B573
:103A680014D800239CB2A24207D890F8943013448B
:103A7800DBB280F89430002030BD90F89440CD5CE3
:103A88001C440133044484F87450EBE70120F3E745
:103A98002DE9F34705460F4690469946002400F065
:103AA800BFF90435D5F82CA006464B4642463946A0
:103AB8002846CDF800A002F03BFD022806D100F010
:103AC800AFF9841B642CF0D906201FE008BB00F076
:103AD800A7F90646284603F07FFC202809D0632C66
:103AE80007D800F09DF9841B284603F078FC0028CD
:103AF800F0D0284603F073FC632C0CD882060AD455
:103B080043070AD4003818BF0120800002B0BDE87E
:103B1800F0870420FAE70520F8E70320F6E710B558
:103B280064230446043002F011FC022810D0032854
:103B380006D090B194F84530202B18BF042004E03B
:103B480094F84530202B18BF052008BF022004E058
:103B580094F84530202B18BF062010BD2DE9F347F7
:103B68001F4604460E46914600F05AF980463FB972
:103B780001223146204602B0BDE8F047FFF7CFBF2B
:103B8800D4F830A0002504343B464A463146204646
:103B9800CDF800A002F062FC022807D100F040F93D
:103BA800A0EB0805642DEFD906201FE008BB00F044
:103BB80037F90646204603F00FFC202809D0632D6C
:103BC80007D800F02DF9851B204603F008FC0028D3
:103BD800F0D0204603F003FC632D0CD882060AD4EB
:103BE80043070AD4003818BF0120800002B0BDE89E
:103BF800F0870420FAE70520F8E70320F6E720B16C
:103C080019B1C166043002F0A9BD704720B119B1DD
:103C18000167043002F0A2BD704770B590F891308A
:103C280004460E46051F012B09D1436E3BB1836E36
:103C380028469847022384F8913000236366012EB2
:103C48004FF0000312D1E26E84F891301AB1284681
:103C580084F89030904794F8902004F17001204641
:103C68004FF00073BDE8704002F0B4BC01226366F7
:103C780020464FF0807384F89120616E7431294496
:103C8800BDE8704002F008BD10B590F891300446C8
:103C9800012B04D1436E13B1836E04389847022375
:103CA800204684F8913000236366BDE8104002F096
:103CB80055BD436E1F2B02DC436E0133436690F8FB
:103CC8009130012BDAB206D1416E4FF0807370311A
:103CD800014402F0E1BC7047002380F8903070473F
:103CE80090F892300BB902F039BD7047014B186853
:103CF80002F048BDA40D0024014B186803F0DBB89E
:103D0800A40D0024014B586802F03CBDA40D00240A
:103D1800014B586803F0CFB8A40D0024014B9868F4
:103D280002F030BDA40D0024014B986803F0C3B81D
:103D3800A40D0024054B10B5DC68204602F022FDD6
:103D48002046BDE8104003F0B6B800BFA40D00241B
:103D5800014BD86803F0AFB8A40D002470470000E9
:103D680038B50F4B05461A780AB9012038BD4FF40B
:103D78007A73B3FBF2F30B4A1068B0FBF3F000F070
:103D8800B3FF04460028F0D10F2DEED8024629468D
:103D98004FF0FF3000F056FF034B20461D60E5E76B
:103DA80000000024640000240400002410B503204F
:103DB80000F036FF03F010FF0F49104A8B69C3F378
:103DC8000323D35C03F01F03D8408B6903F00F0370
:103DD800D35C0B4A03F01F0320FA03F31360094B6B
:103DE80018600020FFF7BCFF044618B9FFF7B6FFBC
:103DF800204610BD0124FBE70044025850D60008B5
:103E08006000002464000024034A044B11681B78F6
:103E18000B441360704700BFB40D00240000002459
:103E2800014B1868704700BFB40D002438B504462C
:103E3800FFF7F6FF0546631C1EBF044B1B78E4180A
:103E4800FFF7EEFF431BA342FAD338BD000000245E
:103E5800014B1868000C70470010005C806800F087
:103E6800010070478068C0F3800070470368414ACA
:103E780093422DE9F04104460E461CD03E4802F517
:103E880040723E49834218BF0A4625699768082D43
:103E980007F01F0722D040F22122FA40D1070CD5A3
:103EA800DB6813F0010F18D0636D012043F0200385
:103EB8006365BDE8F081324AE7E72E4A93420AD0AB
:103EC8002D4802F540722D49834218BF0A4693686F
:103ED80013F4404FE7E72A4AF9E70425FFF7A0FF64
:103EE800804623681A682A4225D0626D42F400721F
:103EF8006265DA6812F4406F0FD1627D6AB91A6898
:103F080016070AD5626D22F480726265626DD0046C
:103F180003D4626D42F001026265174A934204D1EC
:103F280040F22122FA40D1071BD5DA68082D1BD1AF
:103F38001D600020BDE7721CD4D0FFF771FFA0EB15
:103F48000800B04201D8002ECBD123681B682B4053
:103F5800C7D1626D032084F8503042F004026265D4
:103F6800A7E7044AD268E1E75204E2D40C221A60B7
:103F7800DFE700BF00200240002102400063025832
:103F8800002302400368186C704700000023F7B54F
:103F98000193054690F85030012B00F0EA81012486
:103FA800036880F850401846FFF75CFF002840F08F
:103FB800DA810A68002A4FEA926007DBC2F3130627
:103FC800002E76D18440DA692243DA614C6803F125
:103FD800300C1F2700F01F00A60904F01F0406F08C
:103FE8000C06A740A0405CF8062022EA070202431C
:103FF80018464CF80620FFF735FF9A6802F00802C9
:1040080002434BD1086803F114070726C40DC0F317
:10401800045004F0040486403A5922EA06028E68E5
:10402800864032433A51A24A4869126802F0704207
:10403800B2F1805FDA6844D1C2F3820252000F699C
:1040480090400C68042F44D003F1600604F0F84453
:1040580056F8272002F000422243024346F8272060
:10406800487E0C69471E56F82420784222F0004208
:10407800784142EAC07246F824200A7E0C6902F1AF
:10408800FF3C186904F01F04DCF1000220F4F04042
:1040980042EB0C02D202A24002431A611846FFF713
:1040A800DDFE00283CD00020002385F8503003B006
:1040B800F0BD92FAA2F20AB1B2FA82F20124944057
:1040C80081E712F0100FDA68B6D0520802F0080241
:1040D800B5E71A6EA00602F0F842B2EB846F03D17E
:1040E8001A6E22F000421A665A6E02F0F8429042A6
:1040F80003D15A6E22F000425A669A6E02F0F842D4
:10410800904203D19A6E22F000429A66DA6E02F06B
:10411800F8429042C2D1DA6E22F00042DA66BDE778
:104128000C68C868D3F8C020C4F3130100F018065F
:1041380022EA01025F49F14021400A43C3F8C02046
:104148005D4A90425BD15D4A934227D15C4A9442D2
:104158006AD05C4A944269D05B4A944268D05B4A10
:10416800944267D002F186621032944264D0584A71
:10417800944202F1042202F5401235D0944232D022
:1041880002F1866202F5006294422AD0514A9442B2
:1041980048D0514A944253D1504A25E0504A93425C
:1041A8004ED1474A94423FD0464A94423ED0464A6E
:1041B80094423DD0454A94423CD002F18662103286
:1041C800944239D0424A944238D002F1042202F58E
:1041D8004012944202F1866202F5006204D09442D1
:1041E800D7D1404A00E0404A92FAA2F20AB1B2FAA4
:1041F80082F2012101FA02F2D9690A43DA61002C3C
:10420800BFF651AF2D4A93421CD1D2F808132B4860
:10421800FFF724FE02463248FFF720FE024382F0F1
:1042280001021CE0314ADFE70122DDE7304ADBE723
:10423800304AD9E7304AD7E7304AD5E7304AD3E79A
:104248000122D9E7264A934202D1D2F80812DEE7C2
:104258002C4A2D489168FFF701FE80F0010202F018
:104268000102002A7FD0294801F0E072844253D12C
:104278000C023FF518AF24498B427FF414AFD1F8F4
:10428800083323F0E0731343214A43F40003C1F8D1
:104298000833204B1B68B3FBF2F301335B00019337
:1042A800019B002B3FF4FFAE019B013BF7E700BFEA
:1042B8000010005CFFFF0F000000FF4700200240D5
:1042C80002003004040060080800900C1000C010C0
:1042D8000004002A000021430000844B0000B84F6E
:1042E8000021024000209036001060320000524742
:1042F800400020198000501D000180210002B025D7
:104308000008302E0063025800600258000084CB79
:10431800400D0300640000241748844210D1C801EE
:104328003FF5C1AE15498B427FF4BDAED1F80833D5
:1043380023F0E073134343F08073C1F80833B2E607
:104348000F4884427FF4AFAE49023FF5ACAE0B494B
:104358008B427FF4A8AED1F8083323F0E0731343FF
:1043680043F48003E9E76B6D012043F020036B659C
:104378009AE602209BE600BF000052C70060025880
:104388000000B8CF406D7047036870B50446184602
:10439800FFF768FD9A6802F00802024301D1002085
:1043A80070BDDA6892013AD5A08A40F201129042B3
:1043B80035D1274A19684E0625D5402201211A60B1
:1043C8001846FFF74FFD50B19A68950707D49A68C9
:1043D80022F0004222F03F0242F010029A600129C6
:1043E8001FD10425FFF71CFD064623689B682B4256
:1043F800D5D0FFF715FD801B0528F6D923689B68E3
:104408002B42F2D001E0013AD4D1636D012043F090
:1044180010036365A36D43F00103A365C0E7022998
:10442800CED19A6810070AD59A68920707D49A6875
:1044380022F0004222F03F0242F020029A60022954
:1044480003D00329CDD10C25CCE70825CAE700BF46
:1044580001DC0C00026870B504461046FFF7FEFC4C
:1044680008B1002070BD9168204B194209D0636DD6
:10447800012043F010036365A36D43F00103A365B6
:10448800F0E7936823F0004323F03F0343F0010370
:104498009360FFF7C5FC2368154A064693420CD083
:1044A80002F58072934202D0124B9B6803E0124BD4
:1044B8009B68D906D5D1114D13E00F4BF5E710468F
:1044C800FFF7CCFC20B993682B4043F001039360BD
:1044D800FFF7A6FC801B022803D923681B68DA07AC
:1044E800C5D522681368DB07E9D5BAE73F00008025
:1044F800002002400063025800230240C0FFFF7FF3
:104508003A4B70B504460068984255D0384903F5CF
:104518004073384A884218BF13469E68FFF7A2FCCA
:10452800054600285FD194F85030012B5BD0012359
:10453800204684F85030FFF78DFF002850D1636D76
:1045480006F01F012A4A23F4706323F0010343F4A1
:10455800807363652368934230D189BBA2F580726A
:10456800656D25F480156565656D15F4805502D077
:10457800A56D25F00605A5651C2593421D604FF025
:10458800000584F8505005D040F2212525FA01F1A4
:10459800C90717D5DA68920105D5626D22F4405231
:1045A80042F4805262659A6822F0004222F03F028B
:1045B80042F004029A6070BD0F4BAEE71A46CFE78F
:1045C8000A4AD1E7636D43F480136365D3689B019E
:1045D800F1D5636D23F4405343F480536365EAE7F0
:1045E80084F85050E7E70220E5E700BF00200240CA
:1045F800002102400063025800230240026838B5D7
:10460800044610469368FFF729FC08B9002038BD16
:104618009907FBD4936803F00D03012B19D1936814
:1046280023F0004323F03F0343F002039360032386
:104638001360FFF7F5FB054623689B68DB07E5D5A4
:10464800FFF7EEFB401B0228F6D923689B68DA07C0
:10465800F2D5636D012043F010036365A36D43F049
:104668000103A365D3E7000038B50446002800F02D
:10467800B780436D032143F002034365FFF784FECF
:104688002268D36843F40013D360002800F08E80BA
:10469800012523685A686FF30A025A6040F2FF72D4
:1046A8001A609A6822F0A0429A609A6842F0005212
:1046B8009A60DA6802F08022DA60DA6842F0004232
:1046C800DA60484A19690A401A615A6902F0404298
:1046D8005A619A6902F078429A611A6A02F07C4239
:1046E8001A625A6A02F07C425A62D3F8B02002F089
:1046F8007C42C3F8B020D3F8B42002F07C42C3F85F
:10470800B420D3F8B82002F07C42C3F8B820D3F81C
:10471800BC2002F07C42C3F8BC20334A196B0A4023
:1047280032491A635A6B0A405A639A6B0A409A6371
:10473800DA6B22F4FB6222F00702DA631A6E0022B7
:104748001A66596E5A66996E9A66D96EDA6628495B
:10475800D3F8A0200A40C3F8A020D3F8A4200A4028
:10476800C3F8A420D3F8C0200A402249C3F8C020C7
:104778008B42D3F8C42002F0F822C3F8C42002D038
:104788001D4A93421CD11B48FFF768FB02461A4892
:10479800FFF764FB0243012A20D10023A36584F8B4
:1047A80050306365C4E91733284638BD2046FFF703
:1047B80025FF054600287FF46BAF0123636568E792
:1047C8000E48FFF74BFB0128E7D00D4B99682046B0
:1047D8000C4A0A409A6006F0ADFCDEE70A4BF5E7A2
:1047E8000125E1E71CF800FC300882E0200882E09F
:1047F8000000F0FF00200240002102400060025843
:1048080000630258E03000FE0023024010B590F823
:1048180050300446012B19D00123032180F8503071
:10482800FFF7B2FD20B10120002384F8503010BDFD
:104838002046FFF7E3FE0028F5D1636D23F4885383
:1048480023F0010343F001036365EDE70220EEE77F
:1048580038B5434A05460368934203D002F580728F
:10486800934225D13F4B9B6803F44033003B18BF6C
:104878000123FBB94FF40020002104F08BFB6B6887
:104888000446B3F5101F4AD03FD8B3F5E01F44D013
:1048980036D8B3F5801F08D02CD8B3F5002F04D034
:1048A80023F40022B2F5802F16D19B0C5B000FE099
:1048B8002D4BD8E703F058FB6B680446B3F5003F6F
:1048C80005D0B3F5403F06D0B3F5803F04D11B0CAB
:1048D800B4FBF3F400E08408FFF7BAFA41F20302EC
:1048E8002B68904223D8214A94429A681BD942F4F3
:1048F80080721AE0B3F5A01FD7D0B3F5C01FD3E775
:10490800B3F5001FE8D14409E6E7B3F5201F08D046
:10491800B3F5301FE0D1040ADEE70409DCE78409B7
:10492800DAE7C409D8E722F480729A6038BD104AE1
:10493800944203D89A6822F44072F6E70D4A9442EA
:1049480003D89A6822F44072D1E70B4A94429A68D5
:1049580096BF22F4407242F4407242F40072E4E7D7
:10496800002002400023024000630258002D31015C
:1049780021BCBE0041787D0181F0FA020023F7B521
:1049880004460193002800F0E680456D25B906F03D
:1049980087FBA56584F8505023689A68900005D570
:1049A8009A6822F0204222F03F029A609A68D10069
:1049B80032D59A68D20044D4626D012542F01002C3
:1049C8006265A26D42F00102A2651846FFF74AFA35
:1049D800626D02F01002024340F0B980626D184621
:1049E80022F4817242F002026265FFF737FA00286A
:1049F80035D15A4A934203D002F58072934222D1AC
:104A08005648FFF72BFA03465548FFF727FA0343A2
:104A1800012B24D0534A1CE09A68534922F01042D3
:104A280022F03F0242F080529A60504A1268B2FB6C
:104A3800F1F201320192019A002ABAD0019A013AA0
:104A4800F8E70025C1E74A48FFF708FA012806D029
:104A5800484A9368616823F47C130B439360FFF71B
:104A6800F7F941F2030C267F617D6045A3684FEAA0
:104A78000642276B4FEA41315DD9102B5BD10A43BF
:104A88003A4342F01C03012E02BF226A02F1FF32B0
:104A980043EA4243626A22B102F47872A16A0A4385
:104AA800134322683449D068014010461943D16045
:104AB800FFF7D8F9936803F00803034327D1D368B5
:104AC800217D23F4804323F0030343EA8133E16A21
:104AD8000B43D36094F83830012B30D1E36B106965
:104AE800591ED4E91036334343EA0143A16C0B4302
:104AF800224901400B4343F0010313612046136927
:104B0800616B23F070430B431361FFF7A1FEE36869
:104B18002268012B17D1116BA36921F00F01013B0A
:104B28000B431363636D23F0030343F001036365D1
:104B3800284603B0F0BD3B4313430B43A3E7136977
:104B480023F00103D9E7136B23F00F03E9E7636D43
:104B580043F0100363650125EAE700BF0020024027
:104B68000021024000230240400D0300640000249D
:104B7800006002580063025803C0F0FF1EF800FCF2
:104B8800002373B50193044690F850300D4616463D
:104B9800012B3ED0012380F85030FFF72FFD636DC5
:104BA800002833D123F48853226806F0804605F4A0
:104BB800803523F0020343F002036365164B9168C6
:104BC8000B4033432B4343F0004393609368002B1F
:104BD80012DA019B013301930199104B9942F5D3E5
:104BE800636D012023F0120343F010036365002373
:104BF80084F8503002B070BD636D23F0030343F0B6
:104C080001036365002384F85030F3E743F0100391
:104C1800F7E70220EEE700BFC0FFFE3F00F8C3251C
:104C280007490302CA6803F4E06322F4E06212044D
:104C3800120C134343F0BF6343F40033CB60704757
:104C480000ED00E0164B30B5DC68C4F30224C4F173
:104C58000703251D042B28BF0423062D4FF0FF351D
:104C68008CBF033C002405FA03F3002805FA04F579
:104C780021EA030322EA050203FA04F343EA0203E2
:104C88004FEA0313DBB206DB00F1604000F5614038
:104C980080F8003330BD00F00F00024A1354F9E7E2
:104CA80000ED00E014ED00E0002807DB01234109D6
:104CB80000F01F00024A834042F82130704700BFCD
:104CC80000E100E000280CDB4309012200F01F008E
:104CD80004492033824041F82320BFF34F8FBFF3AC
:104CE8006F8F704700E100E00138B0F1807F0BD290
:104CF8004FF0E023054AF0215861002082F8231084
:104D0800072298611A6170470120704700ED00E0A2
:104D1800BFF35F8F044B5A6A22F480325A62002232
:104D2800C3F89420704700BF00ED00E0064B40F048
:104D38000100C3F894005A6A42F480325A62BFF301
:104D48004F8FBFF36F8F704700ED00E04378144A30
:104D5800C2F89830D2F8A03023F00103C2F8A0308E
:104D68004368C2F89C30C37A017B1B0643EA01738F
:104D780001780B43817A43EAC143417B43EA81438B
:104D8800817B43EA4143C17B43EA0143417A43EAD9
:104D98000123017A43EA4103C2F8A030704700BFFB
:104DA80000ED00E0002808DB4309012200F01F00A5
:104DB80002496033824041F82320704700E100E057
:104DC800704708B5FFF7FCFF08BD704710B50446EB
:104DD80008B9012010BD437F03F0FF0213B9027721
:104DE800FFF7F3FF022363772379E3B92368134AB4
:104DF8005A619A6822F018029A6062792368D2B9D7
:104E08004FF0FF321A6100209A68616922F060024F
:104E18000A43A1699A609A6822F080020A439A605C
:104E280001236377D6E7D4E90212204600F008F898
:104E38000028E2D0CDE72269E4E700BFB71DC1042E
:104E4800CB0710B50BD51E2321FA03F4E40708D5C8
:104E5800102A18D0102A09D862B1082A15D00120C2
:104E680010E0013BF0D2102AF4D1F8E7182AF6D165
:104E7800062BF4D800684161836823F018031343B4
:104E88008360002010BD072BF3E70F2BF1E710B567
:104E9800044640B10223037106F0C8F800202061DF
:104EA8006071207110BD0120FCE7012310B558B1D5
:104EB800046801F01001226803FA01F122EA0102F4
:104EC80022600371002010BD1846FCE7F0B5DFF83A
:104ED80044C10468876D644545D04C4DAC4242D00E
:104EE8001835AC423FD01835AC423CD01835AC42EE
:104EF80039D01835AC4236D01835AC4233D01835D5
:104F0800AC4230D005F55675AC422CD01835AC42C1
:104F180029D01835AC4226D01835AC4223D01835E4
:104F2800AC4220D01835AC421DD01835AC421AD04E
:104F38001835AC4217D0364DAC4214D01435AC42BB
:104F480011D01435AC420ED01435AC420BD0143508
:104F5800AC4208D01435AC4205D01435AC4202D06E
:104F68001435AC4248D1D0E919566E60C56E15B1FA
:104F7800D0E91C566E606445C56D86682DD02348FF
:104F880084422AD01830844227D01830844224D052
:104F98001830844221D0183084421ED01830844200
:104FA8001BD01830844218D000F55670844214D0B3
:104FB8001830844211D0183084420ED01830844200
:104FC8000BD01830844208D01830844205D01830ED
:104FD800844202D0183084420FD13F2005F01F05CB
:104FE80000FA05F5BD60206820F480202060402E7E
:104FF800636008D1A260E160F0BD05F01F050120E3
:10500800A8407860F3E7A160E260F5E72800024075
:1050180008540258100002400368024623498B4294
:1050280010B531D018318B422ED018318B422BD08D
:1050380018318B4228D018318B4225D018318B4239
:1050480022D018318B421FD018318B421CD001F569
:1050580056718B4218D018318B4215D018318B42BB
:1050680012D018318B420FD018318B420CD0183126
:105078008B4209D018318B4206D018318B4203D0AD
:1050880023F0FF00906510BDDCB218210848103CE1
:10509800B4FBF1F101F007015F2C415C23F47F7050
:1050A80020F00300D16588BF0430EBE71000024010
:1050B80084D5000802682049D3B28A4228D0143126
:1050C8008A4225D014318A4222D014318A421FD014
:1050D80014318A421CD014318A4219D014318A42C0
:1050E80016D014318A4213D01821103BB3FBF1F3C8
:1050F80012491144A8291CD903F18052012103F057
:105108001F0302F5024201FA03F30D4992000CE075
:105118001422083B0121B3FBF2F303F1B05201FA68
:1051280003F3084902F5164292008366C0E9182184
:1051380070470833E0E700BF08540258F0FBFDBF92
:1051480080080240805802580279511E072910B57C
:1051580021D80368134CA3421ED01434A3421BD099
:105168001434A34218D01434A34215D01434A342E3
:1051780012D01434A3420FD01434A3420CD01434E8
:10518800A34209D0084B1344084A9B00C0E91B32CC
:1051980001238B40436710BD054B1344054A9B0010
:1051A800F4E700BF085402583F820010400902404B
:1051B8003F96001640590258F8B50546FEF730FEEE
:1051C8000746002D00F0D2802C68AA4EB44200F0A9
:1051D8008D80A94B9C4200F0898018339C4200F0D6
:1051E800858018339C4200F0818018339C427DD022
:1051F80018339C427AD018339C4277D018339C429B
:1052080074D003F556739C4270D018339C426DD00D
:1052180018339C426AD018339C4267D018339C429A
:1052280064D018339C4261D018339C425ED0183346
:105238009C425BD0914B9C4240F0FC80022385F855
:105248003530002385F83430AB682168402B6FF384
:10525800101100F00D81A3F18002534253419B03CA
:10526800D5E90320024368690243A8690243E86953
:105278000243286A41EA1011284641EAD202134340
:10528800142223607E4B2344B3FBF2F39B00EB65AF
:10529800FFF7C2FEEB6D03F01F020123934043604A
:1052A800764B9C4200F0AB8014339C4200F0A78000
:1052B80014339C4200F0A38014339C4200F09F807A
:1052C80014339C4200F09B8014339C4200F097807A
:1052D80014339C4200F0938014339C4200F08F807A
:1052E80000200123686585F8353040E0022385F801
:1052F8003530002385F83430236823F00103236018
:105308002C682368DB0727D423685E49AA691940FB
:10531800D5E9023003432869034368690343E86910
:1053280013430343286A0343686A042843EA0103D2
:1053380002BFD5E90B1739430B43534909686FF38B
:105348000F01B1F1005F1BD369682E2910D82829F5
:1053580016D943F4801313E0FEF762FDC01B05283D
:10536800CED920236B65032385F835300120F8BD9D
:105378003F39132904D8454F27FA01F1CF07E8D45C
:1053880023600428636923F0070343EA000328D154
:10539800A96AE86A0B4320B33AB9012916D031F05B
:1053A80002021ED1C1011CD513E0B2F5005F14D171
:1053B800032916D801A252F821F000BFDB530008D8
:1053C800AD530008DB530008D5530008B0F1C07F87
:1053D80007D140236B650123C6E70229F9D90329C0
:1053E800E0D063612846FFF717FEEB6DB44203F087
:1053F8001F024FF03F0303FA02F383604AD12846A5
:105408000024FFF757FEAB682A6E802B04BF0023E9
:105418006B606B68D9B2013B1160072BD5E9192184
:10542800516066D8FFF790FEEB6E1C60D5E91C3220
:105438005A6055E7164B9C423FF400AF14339C4228
:105448003FF4FCAE14339C423FF4F8AE14339C4254
:105458003FF4F4AE14339C423FF4F0AE14339C4254
:105468003FF4ECAE14339C423FF4E8AE402379E7B6
:105478001023F5E6100002402800024008540258A4
:10548800F8ABFDA73F8010FE0010005C0F030F0073
:105498001C540258194B9C42B1D018339C42AED0D0
:1054A80018339C42ABD018339C42A8D018339C4286
:1054B800A5D018339C42A2D018339C429FD003F544
:1054C80056739C429BD018339C4298D018339C4208
:1054D80095D018339C4292D018339C428FD0183301
:1054E8009C428CD018339C4289D018339C4286D079
:1054F800D6E6C5E91B446C67F2E600BF2800024007
:1055080070B50546002800F0DA8090F834000128CC
:1055180000F0D780012085F8340095F8350001287F
:105528004FF0000040F0C6800224674E85F83540F1
:105538002C686865B4421ED0644884421BD0183079
:10554800844218D01830844215D01830844212D0C2
:10555800183084420FD0183084420CD0183084425E
:1055680009D000F55670844205D01830844202D024
:1055780018308442FFD0206820F0010020602846BF
:10558800FFF7A4FCB4422A6C53D0504B9C4250D035
:1055980018339C424DD018339C424AD018339C4251
:1055A80047D018339C4244D018339C4241D018331A
:1055B8009C423ED003F556739C423AD018339C4225
:1055C80037D018339C4234D018339C4231D018332A
:1055D8009C422ED018339C422BD018339C4228D0A2
:1055E80018339C4225D0236823F00E0343F00A03A6
:1055F8002360002A54D1364B9C4225D0354B9C421F
:1056080022D014339C421FD014339C421CD0143334
:105618009C4219D014339C4216D014339C4213D0A8
:1056280014339C4210D02368002043F00103236008
:1056380070BD236823F01E0343F0160323601AB1DC
:10564800236843F0080323602B6E1A68D2032CD416
:10565800EB6E1BB11A6842F480721A60B442E2D051
:105668001A4B9C42DFD018339C42DCD018339C4242
:10567800D9D018339C42D6D018339C42D3D0183393
:105688009C42D0D018339C42CDD003F556739C422F
:10569800C9D018339C42C6D018339C42C3D0C2E745
:1056A800236843F004032360A5E71A6842F4807274
:1056B8001A60CDE74FF4006385F834006B6501206C
:1056C800B6E70220B4E700BF1000024028000240FD
:1056D800085402581C540258F8B50546FEF7A0FBBA
:1056E800074645B195F83530022B06D080236B6507
:1056F800002385F834300120F8BD2C687C4EB44274
:105708005BD07C4B9C4258D018339C4255D0183300
:105718009C4252D018339C424FD018339C424CD0F4
:1057280018339C4249D018339C4246D003F556732F
:105738009C4242D018339C423FD018339C423CD004
:1057480018339C4239D018339C4236D018339C42C7
:1057580033D018339C4230D018339C422DD0236864
:1057680023F00E032360644B9C422FD12A6EB4426F
:10577800136823F4807313603DD05E4B9C423AD08B
:1057880018339C4237D018339C4234D018339C428B
:1057980031D018339C422ED018339C422BD018336A
:1057A8009C4228D003F556739C4224D018339C425F
:1057B80021D018339C421ED01DE0236823F01E031D
:1057C8002360636923F080036361CFE74B4B9C42FE
:1057D800CCD014339C42C9D014339C42C6D0143365
:1057E8009C42C3D014339C42C0D014339C42BDD0D9
:1057F80014339C42BAD0236823F001032360236842
:10580800DB0747D42B68EA6DB342A86D02F01F028C
:105818004BD038498B4248D018318B4245D018318B
:105828008B4242D018318B423FD018318B423CD04A
:1058380018318B4239D018318B4236D001F5567168
:105848008B4232D018318B422FD018318B422CD05A
:1058580018318B4229D018318B4226D018318B420F
:1058680023D018318B4220D018318B421DD0012112
:1058780001FA02F24260204A93421AD1D5E919325C
:105888005A60EB6E5BBB0123002085F8353085F844
:10589800340031E7FEF7C4FAC01B0528AFD920232E
:1058A8006B65032385F8353022E73F2393408360F7
:1058B800E4E7124A9342E1D014329342DED0143224
:1058C8009342DBD014329342D8D014329342D5D0CD
:1058D80014329342D2D014329342D4D1CEE71A680C
:1058E80022F480721A60D5E91C325A60CBE700BFF7
:1058F8001000024028000240085402581C54025864
:1059080008B528B190F83530022B03D080234365C1
:1059180001205DE003683F4A934251D01832934218
:105928004ED0183293424BD01832934248D0183296
:10593800934245D01832934242D0183293423FD016
:10594800183293423CD002F55672934238D018323E
:10595800934235D01832934232D0183293422FD026
:10596800183293422CD01832934229D018329342DD
:1059780026D01832934223D01A6822F00E021A60F9
:105988001A6822F001021A60234A934221D1026E5A
:10599800136823F480731360D0E9161303F01F0211
:1059A800012393404B60D0E919325A60C36E2BB380
:1059B8001A6822F480721A60D0E91C325A601DE01D
:1059C800042280F835201A6822F001021A600020AB
:1059D80008BD124A9342DAD014329342D7D0143217
:1059E8009342D4D014329342D1D014329342CED0C1
:1059F80014329342CBD014329342C8D0012380F89A
:105A08003530002380F83430036D002BDFD0984701
:105A1800DDE700BF10000240085402581C54025829
:105A280000232DE9F34101930446844B844F1E68FB
:105A38000368856DBB42D5F80080D5F800C047D013
:105A4800804A934244D01832934241D0183293424C
:105A58003ED0183293423BD01832934238D0183295
:105A6800934235D01832934232D002F5567293429F
:105A78002ED0183293422BD01832934228D01832A5
:105A8800934225D01832934222D0183293421FD025
:105A9800183293421CD01832934219D06A4A934262
:105AA80040F03681E16D04201A6801F01F0188403A
:105AB80010EA0C0F00F05381560740F15081110491
:105AC800686040F14481D30300F14781A36CA0E0F2
